:020000040800F2
:1000000000500020CD0F0008690F00086B0F00089A
:100010006D0F00086F0F0008710F0008000000004E
:10002000000000000000000000000000730F000846
:10003000750F000800000000770F0008790F000816
:1000400015100008151000081510000815100008FC
:1000500015100008151000081510000815100008EC
:1000600015100008151000081510000815100008DC
:1000700015100008151000081510000815100008CC
:1000800015100008151000081510000815100008BC
:1000900015100008151000081510000815100008AC
:1000A000151000081510000815100008151000089C
:1000B000151000081510000815100008151000088C
:1000C000151000081510000815100008151000087C
:1000D000151000081510000815100008151000086C
:1000E0001510000815100008151000080000000089
:1000F0000000000000000000000000000000000000
:0C01000000000000000000005FF808F1A3
:10010C0010B5054C237833B9044B13B10448AFF345
:10011C0000800123237010BD0C00002000000000A3
:10012C007010000808B5034B1BB103490348AFF32B
:10013C00008008BD000000001000002070100008B6
:10014C0010B504460E4B18784FF47A73B3FBF0F3EA
:10015C000C4A1068B0FBF3F000F080F868B90F2C73
:10016C0001D901200AE0002221464FF0FF3000F0B7
:10017C0041F8034B5C60002000E0012010BD00BF83
:10018C00000000200800002008B5074A136843F05F
:10019C0010031360032000F01BF80020FFF7D0FFC2
:1001AC0000F0BAFE002008BD00200240034A11688E
:1001BC00034B1B780B441360704700BF28000020D2
:1001CC0000000020014B1868704700BF2800002079
:1001DC00074AD36823F4E0631B041B0C000200F4F1
:1001EC00E060184340F0BF6040F40030D0607047CE
:1001FC0000ED00E030B4174BDB68C3F30223C3F10E
:10020C000704042C28BF04241D1D062D18D9033BFC
:10021C004FF0FF3505FA04F421EA0401994005FA80
:10022C0003F322EA0303194300280BDB0901C9B2CB
:10023C0000F1604000F5614080F8001330BC70475D
:10024C000023E5E700F00F000901C9B2024B195475
:10025C00F4E700BF00ED00E014ED00E00138B0F170
:10026C00807F0AD2064B5860064AF02182F8231090
:10027C000020986007221A6070470120704700BF69
:10028C0010E000E000ED00E0F0B482B0002635464E
:10029C00A1E0002C59D0012C00D1CE68FF2B68D8DE
:1002AC008446FF2B68D8AC00DCF800200F27A74051
:1002BC0022EA070206FA04F42243CCF800204A682A
:1002CC0012F0805F00F086805E4A946944F001046D
:1002DC009461926902F001020192019AAC08A71C88
:1002EC00594A52F8272005F00307BF004FF00F0CB6
:1002FC000CFA07FC22EA0C0C544A904242D002F54C
:10030C00806290427FD002F5806290427DD002F5EF
:10031C008062904234D0042235E04D4FBC4214D060
:10032C000BD94C4FBC4210D007F58037BC420CD0D7
:10033C00A7F58017BC42B1D107E0A7F58017BC42E6
:10034C0003D007F58037BC42A8D18C687CB1012C56
:10035C0008D042610826A1E7CE6808369EE7CE6831
:10036C000C369BE70261082698E7002696E70426E0
:10037C0094E700F1040C94E7A5F10804A40093E7BA
:10038C00032200E00022BA4042EA0C0202342E4F53
:10039C0047F824204A6812F4803F38D02E4C22684B
:1003AC001A4322604A6812F4003F36D02A4C626825
:1003BC001A4362604A6812F4801F34D0264CA2683B
:1003CC001A43A2604A6812F4001F32D0224CE26831
:1003DC001343E36001350F2D31D80122AA400B687D
:1003EC0013409A42F6D14C68122CB8D095D8022CF6
:1003FC00B2D07FF64EAF032CB7D0112C7FF44EAF9A
:10040C00CE6804364AE70122BDE70222BBE7124C54
:10041C00226822EA03022260C4E70F4C626822EAD7
:10042C0003026260C6E70C4CA26822EA0302A260D7
:10043C00C8E7094CE26822EA0303E360CAE702B0AA
:10044C00F0BC704700100240000001400008014061
:10045C0000002110000031100004014012B9090401
:10046C00016170470161704782B0084B1B68084AF4
:10047C00A2FB03235B0A00FB03F0019000BF019B6E
:10048C005A1E0192002BF9D102B0704708000020CF
:10049C00D34D621070B582B00446036813F0010F9F
:1004AC002CD0AB4B5B6803F00C03042B1DD0A84B7A
:1004BC005B6803F00C03082B12D06368B3F5803F24
:1004CC0041D0002B55D103F1804303F504331A6856
:1004DC0022F480321A601A6822F480221A6037E003
:1004EC009B4B5B6813F4803FE7D0994B1B6813F46C
:1004FC00003F03D06368002B00F0AE81236813F03B
:10050C00020F76D0924B5B6813F00C0F5FD0904BC0
:10051C005B6803F00C03082B54D02369002B00F00C
:10052C008A808C4B01221A60FFF74CFE0546884BE3
:10053C001B6813F0020F75D1FFF744FE401B022815
:10054C00F5D903208BE1824A136843F4803313609E
:10055C00636843B3FFF736FE05467D4B1B6813F407
:10056C00003FCBD1FFF72EFE401B6428F5D90320AA
:10057C0075E1B3F5A02F09D0754B1A6822F48032BF
:10058C001A601A6822F480221A60E1E703F18043B2
:10059C00A3F53C331A6842F480221A601A6842F4BC
:1005AC0080321A60D4E7FFF70DFE0546684B1B68D6
:1005BC0013F4003FA2D0FFF705FE401B6428F5D9C9
:1005CC0003204CE1624B5B6813F4803FA5D1604B78
:1005DC001B6813F0020F04D02369012B01D00120FA
:1005EC003DE15B4A136823F0F803616943EAC103F8
:1005FC001360236813F0080F32D0A369002B5BD073
:10060C00554B01221A60FFF7DDFD0546504B5B6A26
:10061C0013F0020F21D1FFF7D5FD401B0228F5D9AD
:10062C0003201CE14A4A136823F0F803616943EA8A
:10063C00C1031360DDE7474B00221A60FFF7C2FDD0
:10064C000546434B1B6813F0020FD2D0FFF7BAFDDF
:10065C00401B0228F5D9032001E10120FFF704FF1C
:10066C00236813F0040F00F09780394BDB6913F00B
:10067C00805F33D1364BDA6942F08052DA61DB6944
:10068C0003F080530193019B0125344B1B6813F439
:10069C00807F25D0E368012B36D0002B4CD103F1A1
:1006AC00804303F504331A6A22F001021A621A6AB3
:1006BC0022F004021A622CE0274B00221A60FFF78A
:1006CC0081FD0546224B5B6A13F0020FC8D0FFF781
:1006DC0079FD401B0228F5D90320C0E00025D4E7A2
:1006EC001E4A136843F480731360FFF76BFD0646D4
:1006FC001A4B1B6813F4807FCCD1FFF763FD801B72
:10070C006428F5D90320AAE0114A136A43F00103C7
:10071C001362E36873B3FFF755FD06460C4B1B6A77
:10072C0013F0020F37D1FFF74DFD801B41F28833D8
:10073C009842F3D9032092E0052B11D0044B1A6A8E
:10074C0022F001021A621A6A22F004021A62E0E72D
:10075C0000100240000042428004424200700040FF
:10076C00414B1A6A42F004021A621A6A42F0010200
:10077C001A62CEE7FFF726FD06463B4B1B6A13F0C9
:10078C00020F08D0FFF71EFD801B41F28833984200
:10079C00F3D9032063E0E5B9E369002B5ED0324A5C
:1007AC00526802F00C02082A5BD0022B17D02F4B98
:1007BC0000221A60FFF706FD04462B4B1B6813F052
:1007CC00007F47D0FFF7FEFC001B0228F5D9032061
:1007DC0045E0254AD36923F08053D361DCE7234BF2
:1007EC0000221A60FFF7EEFC05461F4B1B6813F046
:1007FC00007F06D0FFF7E6FC401B0228F5D903204A
:10080C002DE0236AB3F5803F1AD017494B6823F4C7
:10081C007413226A606A024313434B60134B012228
:10082C001A60FFF7CFFC04460F4B1B6813F0007FD8
:10083C000ED1FFF7C7FC001B0228F5D903200EE0F0
:10084C00094A536823F40033A1680B435360DCE777
:10085C00002004E0002002E0012000E0002002B0B3
:10086C0070BD0120FBE700BF001002406000424257
:10087C0010B487B0164C94E80F000DF1180C0CE96D
:10088C000F00238AADF80430124B5B6803F00C02A6
:10089C00082A1AD1C3F38342624412F8102C13F4C1
:1008AC00803F05D10C4800FB02F007B010BC70472C
:1008BC00084B5B68C3F34043634413F8143C07488C
:1008CC0000FB02F0B0FBF3F0EFE70448EDE700BFEC
:1008DC00881000080010024000093D0000127A0048
:1008EC00624B1B6803F007038B420CD25F4A136800
:1008FC0023F007030B431360136803F007038B42C9
:10090C0001D00120704770B5036813F0020F17D0A7
:10091C0013F0040F04D0564A536843F4E063536059
:10092C00036813F0080F04D0514A536843F4605322
:10093C0053604F4A536823F0F00384682343536099
:10094C000D460446036813F0010F52D04368012B87
:10095C0023D0022B28D0464A126812F0020F00F066
:10096C00828043494A6822F0030213434B60FFF72D
:10097C0029FC06466368012B1DD0022B2AD03C4B68
:10098C005B6813F00C0F34D0FFF71CFC801B41F29A
:10099C0088339842F3D9032064E0354A126812F484
:1009AC00003FDED101205DE0314A126812F0007F79
:1009BC00D7D1012056E02E4B5B6803F00C03042BBF
:1009CC0017D0FFF7FFFB801B41F288339842F2D916
:1009DC00032047E0264B5B6803F00C03082B08D080
:1009EC00FFF7F0FB801B41F288339842F2D90320C9
:1009FC0038E01E4B1B6803F00703AB420CD91B4AB3
:100A0C00136823F007032B431360136803F00703E9
:100A1C00AB4201D0012025E0236813F0040F06D06F
:100A2C00134A536823F4E063E1680B435360236873
:100A3C0013F0080F07D00E4A536823F46053216952
:100A4C0043EAC1035360FFF713FF094B5B68C3F321
:100A5C000313084AD35CD840074B18600020FFF7FB
:100A6C006FFB002070BD0120FCE700BF002002409E
:100A7C0000100240AC10000808000020014B186860
:100A8C00704700BF0800002038B5044608461146E0
:100A9C001D46E06022706370049BA370059BE3709D
:100AAC00069B2371079B6371012200F0B5F90122AB
:100ABC002946E06800F0B0F90023A37138BD10B5E9
:100ACC00044600224178C06800F0CAF9022000F008
:100ADC00F1F901226178E06800F0C2F9022000F01F
:100AEC00E9F900226178E06800F0BAF9642000F0BE
:100AFC00E1F910BDF8B505460F4600240EE02E199D
:100B0C000122B178E86800F087F947FA04F202F0A4
:100B1C000102B178E86800F0A3F90134032CEED996
:100B2C002846FFF7CCFFF8BD38B504460D460178D2
:100B3C00C06800F095F929092046FFF7DBFF29462C
:100B4C002046FFF7D7FF38BD08B50122FFF7ECFFB1
:100B5C0008BD08B500220121FFF7E6FF4FF4FA604B
:100B6C0000F0A8F908BD08B5C17941F00401C171C4
:100B7C00002241F00801FFF7D7FF08BD38B5044645
:100B8C00012A03D9837943F008038371A2720025EB
:100B9C00E5724CF2503000F08DF92A462178E0686D
:100BAC0000F05EF92A466178E06800F059F9A17905
:100BBC0011F0100F31D0002241F020012046FFF738
:100BCC00B3FF41F2941000F075F9A179002241F0C5
:100BDC0020012046FFF7A8FF962000F06BF9A179C1
:100BEC00002241F020012046FFF79EFFA179002250
:100BFC0041F020012046FFF797FF0423E3712046C4
:100C0C00FFF7B1FF2046FFF7A4FF02232372002257
:100C1C0006212046FFF788FF38BD03212046FFF749
:100C2C0069FF41F2941000F045F903212046FFF7CB
:100C3C0061FF41F2941000F03DF903212046FFF7CB
:100C4C0059FF962000F036F902212046FFF752FF9B
:100C5C00CCE708B5FFF778FF08BD38B505460C465C
:100C6C0003E001342846FFF7F4FF21780029F8D17E
:100C7C0038BD000070B584B006460139CCB2013ADB
:100C8C00D5B20D4B0FCB0DF1100C0CE90F00B27A55
:100C9C00AA4201D2013AD5B204AB03EB850555F853
:100CAC00101C214449B261F07F010022C9B23046C8
:100CBC00FFF73AFF04B070BD9C10000810B590B05F
:100CCC002422002107A800F0C5F900240194029405
:100CDC000394049405940223069301230A9310238E
:100CEC000B9306A8FFF7D6FB0F23019302940394F2
:100CFC0004940594214601A8FFF7F2FD10B010BD35
:100D0C0000B589B0FFF740FAFFF7D8FF00F0B4F850
:100D1C003B4B9A6942F010029A619A6902F01002F8
:100D2C000592059A9A6942F020029A619A6902F03A
:100D3C0020020692069A9A6942F004029A619B6913
:100D4C0003F004030793079B01224FF400512D4835
:100D5C0000F062F82C4C01221146204600F05CF8A1
:100D6C0001220221204600F057F8012204212046DE
:100D7C0000F052F801220821204600F04DF8012223
:100D8C001021204600F048F801222021204600F0D6
:100D9C0043F81E4D2023039310260296082301933B
:100DAC00042300930223012221462846FFF76CFE00
:100DBC00022231462846FFF7E1FE15492846FFF787
:100DCC004CFF022201212846FFF754FF1149284607
:100DDC00FFF743FF0B4C01224FF40051204600F06B
:100DEC003FF84FF47A7000F07BF800224FF400517A
:100DFC00204600F035F84FF47A7000F071F8E9E70E
:100E0C000010024000100140000801402C0000209E
:100E1C00C4100008CC10000870B584B005460C4610
:100E2C0016460022009201920292039289B2FFF7B9
:100E3C0015FB4EB900940023019302936946284692
:100E4C00FFF722FA04B070BD009401230193022332
:100E5C0003930023029369462846FFF715FAF1E73E
:100E6C0008B522B9002289B2FFF7F8FA08BD0122B1
:100E7C0089B2FFF7F3FAF9E70C4BDA6822F08072CB
:100E8C00DA60DA6842F08072DA60094B1A6822F094
:100E9C0001021A601A6842F001021A6000225A60BC
:100EAC0000BF00BF00BF5868704700BFF0ED00E006
:100EBC00001000E038B50446074B5D68FFF7DEFD17
:100ECC00064BA3FB0030800C04FB00F0024B5B686C
:100EDC005B1B8342FAD338BD001000E083DE1B435A
:100EEC0038B511E00A4B5C68FFF7C8FD094AA2FB54
:100EFC000030800C4FF47A7202FB00F2044B5B68FA
:100F0C001B1B9A42FAD82846451E0028EAD138BD48
:100F1C00001000E083DE1B4382B00E4B9A6942F056
:100F2C0001029A619A6902F001020092009ADA6950
:100F3C0042F08052DA61DB6903F080530193019B2C
:100F4C00054A536823F0E06343F00073536002B02A
:100F5C00704700BF00100240000001407047FEE7E0
:100F6C00FEE7FEE7FEE770477047704708B5FFF7EE
:100F7C001DF908BD0F4B1A6842F001021A6059683E
:100F8C000D4A0A405A601A6822F0847222F48032A8
:100F9C001A601A6822F480221A605A6822F4FE023F
:100FAC005A604FF41F029A60044B4FF000629A6033
:100FBC00704700BF001002400000FFF800ED00E099
:100FCC00002103E00B4B5B58435004310A480B4B98
:100FDC0042189A42F6D30A4A02E0002342F8043B34
:100FEC00084B9A42F9D3FFF7C5FF00F00FF8FFF753
:100FFC0087FE7047DC100008000000200C00002069
:10100C000C0000203C000020FEE7000070B500251D
:10101C000C4E0D4CA41BA410A54209D100F022F8D3
:10102C0000250A4E0A4CA41BA410A54205D170BD84
:10103C0056F8253098470135EEE756F82530984795
:10104C000135F2E7D4100008D4100008D4100008C1
:10105C00D810000803460244934200D1704703F8AD
:10106C00011BF9E7F8B500BFF8BC08BC9E467047F9
:0C107C00F8B500BFF8BC08BC9E467047E9
:1010880002030405060708090A0B0C0D0E0F1010C1
:1010980001020000000000004000000014000000F1
:1010A80054000000000000000000000001020304DA
:1010B8000607080900000000010203047177657241
:0C10C800747900006173646667680000C2
:0410D40031010008DE
:0410D8000D010008FE
:0C10DC00010000001000000000A24A0407
:0400000508000FCD13
:00000001FF
